:0300000002096C86
:0C096C00787FE4F6D8FD75815F0209B3C6
:100B580073617665202020202020202074616B6539
:100B68000061646D696E3A2020202020202020201A
:100B78002000202020206C6F636B206F6E212020C6
:030B88002020002A
:100B8B00022122B80B233031323334353637383922
:100B9B0000122E000000000000000000000000000A
:050BAB00000000000045
:10066B00E4F546F547758901758C3C758AB0D2AFB8
:10067B00D2A9D28C120BF07580FFE4F540F5417FC7
:10068B0001120C2A7BFF7A0B79587F407E00120BEC
:10069B002412044A8E448F45E54564644544700931
:1006AB00858C42858A4312056FE545640B45447082
:1006BB00031202EBE545640D454470227F01120CD9
:1006CB002A7BFF7A0B7969E4FFFE120B24120815C3
:1006DB00EF64014E70087F01120C2A120758E54592
:1006EB00640E454470227F01120C2A7BFF7A0B7932
:1006FB0069E4FFFE120B24120815EF64014E70081B
:10070B007F01120C2A1208C2D3E5419404E5406420
:10071B00809480500302068A7F01120C2A7BFF7A99
:10072B000B797AE4FFFE120B2412044AEF640D4E90
:10073B0070F77BFF7A0B7969FFFE120B24120815F9
:0D074B00EF64014E70D2F540F541020685C5
:03000B00020003ED
:07000300758C3C758AB032D8
:100C2A00C2B48F907F057E00120BD2D2B77F057EA9
:070C3A0000120BD2C2B72229
:100C4100D2B48F907F057E00120BD2D2B77F057E82
:070C510000120BD2C2B72212
:100BF000C2B6C2B77F38120C2A7F0E120C2A7F06AB
:0D0C0000120C2A7F01120C2A7F80020C2AA0
:060B24008B5C8A5D895E16
:100B2A00EF2480FF120C2AE4F55FAB5CAA5DA95E94
:100B3A00855F82758300120114FF120C417F147EB7
:0D0B4A0000120BD2055FE55FC3941040DD83
:010B5700227B
:0E0C93008D5CEF2480FF120C2AAF5C020C4136
:100BD200D3EF9400EE940040147D727C00ED1D7002
:0D0BE200011CED4C70F7EF1F70E61E80E364
:010BEF0022E3
:100C6F0075A0F0AFA0EF64F060057E007F0122E475
:020C7F00FEFF76
:010C81002250
:10044A00E4F55CF55DF55E755F01E55F455E700399
:10045A0002056A120C58EF64014E7006D2B5FE7F8F
:10046A006422C2B5120C6FEF64014E70DD7F01FE8B
:10047A00120BD2120C6FEF64014E700375A0F0AF2D
:10048A00A075A00FAEA0EE4207EF1202C50536779F
:10049A0005127B04EE7D04CB7E053FB7051BBB042A
:1004AA00F7BD04D3BE0548D70524DB0500DD04DC0F
:1004BA00DE0551E7052DEB0509ED04E5EE00000523
:1004CA005CE4F55CF55D020558755C00755D01E458
:1004DA00807C755C00755D02E48073755C00755DF7
:1004EA0003E4806A755C00755D04E48061755C00F4
:1004FA00755D05E48058755C00755D06E4804F758E
:10050A005C00755D07E48046755C00755D08E480F3
:10051A003D755C00755D09E48034755C00755D0AA3
:10052A00E4802B755C00755D0BE48022755C0075B8
:10053A005D0CE48019755C00755D0DE48010755CD6
:10054A0000755D0EE48007755C00755D0FE4F55E6D
:10055A00F55F120C6FEF64014E600302045480F2DF
:04056A00AE5CAF5D77
:01056E00226A
:100C82006B65793A2020202020202020202020205F
:010C92000061
:10056F00E4F548E54825E0242EF8E6FE08E64E605F
:10057F000302064EE54275F00A8485F049E542759F
:10058F00F0098485F04AE54375F00A8485F04BE560
:10059F004375F0098485F04C7F01120C2A7BFF7A9A
:1005AF000C7982E4FFFE120B24AF4974232FF8E677
:1005BF00FD7F407E00120C93AF4A74232FF8E6FDA7
:1005CF007F417E00120C93AF4B74232FF8E6FD7F13
:1005DF00427E00120C93AF4C74232FF8E6FD7F433D
:1005EF007E00120C93E54A75F064A4FFE54975F09F
:1005FF00E8A42FFFE54B75F00AA42F254CF9E4FF73
:10060F00FEEF25E0242EF8E6FC08E6FDE9B5050D22
:10061F00E4B50409858C42858A430205830FBF0028
:10062F00010EEF64094E70D9AF01E54825E0242E85
:10063F00F8760008A607AF487E00120A53800C0513
:10064F0048E548C3940950030205721209F8D3EF25
:0B065F009450EE940040F47E007F01F8
:01066A00226D
:100A5300EE7042EFB40900503C900A63F828287303
:100A6300020A7E020A81020A84020A87020A8A02B1
:100A73000A8D020A90020A93020A96C28022C28158
:100A830022C28222C28322C28422C28522C2862239
:060A9300C2B022C2B12234
:100A9900EE7042EFB40900503C900AA9F828287377
:100AA900020AC4020AC7020ACA020ACD020AD0020D
:100AB9000AD3020AD6020AD9020ADCD28022D281DA
:100AC90022D28222D28322D28422D28522D28622A3
:060AD900D2B022D2B122CE
:100BB100706C6561736520696E707574206B657901
:100BC1000000000000000000000000000000000024
:010BD1000023
:1002EB00E4F548F549F54AF54B784C7C00FD7BFF6E
:1002FB007A0B79C2FE7F081200EE78547C007D00E9
:10030B007BFF7A0B79CA7E007F081200EE7F011209
:10031B000C2A7BFF7A0B79B1E4FFFE120B2412043B
:10032B004A8E548F5574232FF8E6FD7F407E0012C2
:10033B000C9312044A8E568F5774232FF8E6FD7FC9
:10034B00417E00120C9312044A8E588F5974232F3E
:10035B00F8E6FD7F427E00120C9312044A8E5A8FF0
:10036B005B74232FF8E6FD7F437E00120C93E4F5BC
:10037B004AF54BE54B25E0242EF8E6FA08E6FB7C24
:10038B00037DE8FFAE021201538E4C8F4D7C037D33
:10039B00E8AF03AE021201537E007F64CFCDCFCE08
:1003AB00CCCE1201538E4E8F4FE54B25E0242EF809
:1003BB00E6FA08E6FB7C007D64FFAE021201537E79
:1003CB00007F0ACFCDCFCECCCE1201538E508F51A2
:1003DB007C007D0AAF03AE021201538C528D53E5A4
:1003EB004D65557004E54C65547035E54FB5573088
:1003FB00E54EB5562BE551B55926E550B55821E5D7
:10040B0053B55B1CE552B55A17AF4BAE4A120A995E
:10041B00E54B25E0242EF8E4F608F6F540F54122ED
:10042B00054BE54B7002054AC3940CE54A64809476
:0E043B0080500302037E0541E541700205403A
:010449002290
:100ADF002020202020202020202020202020202007
:100AEF002000706C6561736520696E707574206E7F
:100AFF00756D002020202020202020202020202065
:100B0F0020200072657365745F61646D696E6B653B
:050B1F00793A202000DE
:100815007BFF7A0A79DF7F407E00120B24E4F548DE
:10082500F54912044A8E4A8F4BE54B640C454A70D4
:1008350003FEFF22D3E54B9409E54A64809480507A
:10084500CFE54925E0244CF8A64A08A64BE54924FE
:1008550040FFE43548FE7423254BF8E6FD120C9362
:100865000549E54970020548C39404E54864809448
:100875008040AFAE4EAF4F7C007D64120141AA06A9
:10088500AB07AE4CAF4D7C037DE8120141EF2BFB6E
:10089500EE3AFAAE50AF517C007D0A120141EF2BC2
:1008A500FFEE3AFEE54D2FFFE54C3EFEEFB5220982
:0C08B500EEB521057E007F0122E4FEFF6D
:0108C1002214
:10075800E4F548F5497BFF7A0A79F1FFFE120B248C
:10076800E4F54CF54D12044A8E4A8F4BD3E54B9471
:1007780009E54A6480948050D7E54B640C454A707B
:1007880003020810E54D2440FFE4354CFE74232590
:100798004BF8E6FD120C93E54D454C7012AE4AAF8E
:1007A8004BFC7D0A120141EF2549F549EE8008E529
:1007B8004B2549F549E54A3548F548D3E549940CB0
:1007C800E5486480948040187BFF7A0B79027F406B
:1007D8007E00120B24E4F548F54974FFF54CF54DFD
:1007E800054DE54D7002054CC39402E54C648094B8
:1007F80080500302076DAF49AE48120A99E54925B2
:0D080800E0242EF8E4F608F67F01020C2A29
:1008C2007BFF7A0B7912E4FFFE120B247BFF7A0A7C
:1008D20079DF7F407E00120B24E4F548F5491204CB
:1008E2004A8E4A8F4BD3E54B9409E54A6480948043
:1008F200400280D8E54B640C454A606DE54925E02D
:10090200244CF8A64A08A64BE5492440FFE43548A2
:10091200FE7423254BF8E6FD120C930549E5497058
:10092200020548C39404E5486480948040B0AE4E0A
:10093200AF4F7C007D64120141AA06AB07AE4CAFFB
:100942004D7C037DE8120141EF2BFBEE3AFAAE50EB
:10095200AF517C007D0A120141EF2BFFEE3AFEE51A
:090962004D2FF522E54C3EF52174
:01096B002269
:100C0D00C2B2D2AFD2ABD2A9758910E4F58DF58BF6
:0D0C1D00F50CF50DC28E7FE87E03020BD2B0
:1009F800120C0DD2B2000000000000000000000040
:100A0800C2B230B3FDD28E20B3FDC28EAF8DEFFEE1
:100A1800AD8B7C00E42DFFEC3EFEE48F0B8E0AF5D7
:100A280009F5087F547E01FDAB0BAA0AA909A8089D
:100A38001201A8E47B02FAF9F8120233E47BE87A9F
:0B0A480003F9F81202338E0C8F0D2210
:100C58001209F8C3EF943CEE6480948050057E003E
:060C68007F0122E4FEFF03
:010C6E002263
:03001B0002000AD6
:01000A0032C3
:1009780002066BE493A3F8E493A34003F68001F224
:1009880008DFF48029E493A3F85407240CC8C33380
:10099800C4540F4420C8834004F456800146F6DF4F
:1009A800E4800B0102040810204080900B8BE47E49
:1009B800019360BCA3FF543F30E509541FFEE49344
:1009C800A360010ECF54C025E060A840B8E493A30B
:1009D800FAE493A3F8E493A3C8C582C8CAC583CA36
:1009E800F0A3C8C582C8CAC583CADFE9DEE780BEEE
:010BB0000044
:10001E00E709F608DFFA8046E709F208DFFA803EC4
:10002E0088828C83E709F0A3DFFA8032E309F608B1
:10003E00DFFA8078E309F208DFFA807088828C8319
:10004E00E309F0A3DFFA806489828A83E0A3F608CD
:10005E00DFFA805889828A83E0A3F208DFFA804CA7
:10006E0080D280FA80C680D4806980F2803380107E
:10007E0080A680EA809A80A880DA80E280CA8033E7
:10008E0089828A83ECFAE493A3C8C582C8CCC5835F
:10009E00CCF0A3C8C582C8CCC583CCDFE9DEE7802F
:1000AE000D89828A83E493A3F608DFF9ECFAA9F0AE
:1000BE00EDFB2289828A83ECFAE0A3C8C582C8CC04
:1000CE00C583CCF0A3C8C582C8CCC583CCDFEADE1D
:1000DE00E880DB89828A83E493A3F208DFF980CC7F
:1000EE0088F0EF60010E4E60C388F0ED2402B40478
:1000FE000050B9F582EB2402B4040050AF2323451F
:06010E00822390006E73D5
:10011400BB010CE58229F582E5833AF583E02250A0
:1001240006E92582F8E622BBFE06E92582F8E222EA
:0D013400E58229F582E5833AF583E4932204
:10014100EF8DF0A4A8F0CF8CF0A428CE8DF0A42ED2
:02015100FE228C
:10015300BC000BBE0029EF8DF084FFADF022E4CC90
:10016300F875F008EF2FFFEE33FEEC33FCEE9DEC59
:10017300984005FCEE9DFE0FD5F0E9E4CEFD22ED9F
:10018300F8F5F0EE8420D21CFEADF075F008EF2FE9
:10019300FFED33FD4007985006D5F0F222C398FDDA
:0501A3000FD5F0EA2277
:1001A800E88FF0A4CC8BF0A42CFCE98EF0A42CFCF6
:1001B8008AF0EDA42CFCEA8EF0A4CDA8F08BF0A474
:1001C8002DCC3825F0FDE98FF0A42CCD35F0FCEBD3
:1001D8008EF0A4FEA9F0EB8FF0A4CFC5F02ECD3998
:0F01E800FEE43CFCEAA42DCE35F0FDE43CFC2205
:1001F70075F008758200EF2FFFEE33FECD33CDCCBF
:1002070033CCC58233C5829BED9AEC99E582984041
:100217000CF582EE9BFEED9AFDEC99FC0FD5F0D61E
:10022700E4CEFBE4CDFAE4CCF9A88222B800C1B948
:100237000059BA002DEC8BF084CFCECDFCE5F0CB86
:10024700F97818EF2FFFEE33FEED33FDEC33FCEBBF
:1002570033FB10D703994004EB99FB0FD8E5E4F97A
:10026700FA227818EF2FFFEE33FEED33FDEC33FC67
:10027700C933C910D7059BE99A4007EC9BFCE99A5B
:10028700F90FD8E0E4C9FAE4CCFB2275F010EF2FA0
:10029700FFEE33FEED33FDCC33CCC833C810D707A0
:1002A7009BEC9AE899400AED9BFDEC9AFCE899F8DB
:0E02B7000FD5F0DAE4CDFBE4CCFAE4C8F9226E
:1002C500D083D082F8E4937012740193700DA3A3C8
:1002D50093F8740193F5828883E4737402936860DC
:0602E500EFA3A3A380DFDC
:00000001FF
