:030000000209688A
:0C096800787FE4F6D8FD75814C0209AFE1
:100B540073617665202020202020202074616B653D
:100B64000061646D696E3A2020202020202020201E
:100B74002000202020206C6F636B206F6E212020CA
:030B84002020002E
:100B8700020822B80B0A3031323334353637383958
:100B97000012150000000000000000000000000027
:050BA700000000000049
:10066700E4F52DF52E758901758C3C758AB0D2AFEE
:10067700D2A9D28C120BEC7580FFE4F527F5287F01
:1006870001120C267BFF7A0B79547F407E00120BF8
:100697002012044A8E2B8F2CE52C6464452B70099D
:1006A700858C29858A2A12056BE52C640B452B70EE
:1006B700031202EBE52C640D452B70227F01120C0F
:1006C700267BFF7A0B7965E4FFFE120B20120811D7
:1006D700EF64014E70087F01120C26120754E52CB7
:1006E700640E452B70227F01120C267BFF7A0B7953
:1006F70065E4FFFE120B20120811EF64014E70082B
:100707007F01120C261208BED3E5289404E527645E
:1007170080948050030206867F01120C267BFF7AA5
:100727000B7976E4FFFE120B2012044AEF640F4E9A
:1007370070F77BFF7A0B7965FFFE120B2012081109
:0D074700EF64014E70D2F527F528020681FF
:03000B00020003ED
:07000300758C3C758AB032D8
:100C2600C2B48F907F057E00120BCED2B77F057EB1
:070C360000120BCEC2B72231
:100C3D00D2B48F907F057E00120BCED2B77F057E8A
:070C4D0000120BCEC2B7221A
:100BEC00C2B6C2B77F38120C267F0E120C267F06B7
:0D0BFC00120C267F01120C267F80020C26B1
:060B20008B438A44894565
:100B2600EF2480FF120C26E4F546AB43AA44A94500
:100B3600854682758300120114FF120C3D7F147ED8
:0D0B460000120BCE0546E546C3941040DDBD
:010B5300227F
:0E0C8F008D43EF2480FF120C26AF43020C3D74
:100BCE00D3EF9400EE940040147D727C00ED1D7006
:0D0BDE00011CED4C70F7EF1F70E61E80E368
:010BEB0022E7
:100C6B0075A0F0AFA0EF64F060057E007F0122E479
:020C7B00FEFF7A
:010C7D002254
:10044A00E4F543F544F545754601E546454570032F
:10045A00020566120C54EF64014E7004FE7F64229A
:10046A00120C6BEF64014E70E17F01FE120BCE128B
:10047A000C6BEF64014E700375A0F0AFA075A00F6E
:10048A00AEA0EE4207EF1202C5053277050E7B04D5
:10049A00EA7D04C77E053BB70517BB04F3BD04CF4D
:1004AA00BE0544D70520DB04FCDD04D8DE054DE794
:1004BA000529EB0505ED04E1EE00000558E4F543D6
:1004CA00F544020554754300754401E4807C754384
:1004DA0000754402E48073754300754403E4806A3E
:1004EA00754300754404E48061754300754405E46E
:1004FA008058754300754406E4804F75430075447F
:10050A0007E48046754300754408E4803D7543005E
:10051A00754409E4803475430075440AE4802B75F8
:10052A00430075440BE4802275430075440CE48053
:10053A001975430075440DE4801075430075440E27
:10054A00E4800775430075440FE4F545F546120C3F
:10055A006BEF64014E600302045480F2AE43AF4471
:01056A00226E
:100C7E006B65793A20202020202020202020202063
:010C8E000065
:10056B00E4F52FE52F25E02415F8E6FE08E64E60AE
:10057B000302064AE52975F00A8485F030E52975F2
:10058B00F0098485F031E52A75F00A8485F032E5AF
:10059B002A75F0098485F0337F01120C267BFF7AD4
:1005AB000C797EE4FFFE120B20AF30740A2FF8E6B5
:1005BB00FD7F407E00120C8FAF31740A2FF8E6FDE1
:1005CB007F417E00120C8FAF32740A2FF8E6FD7F4D
:1005DB00427E00120C8FAF33740A2FF8E6FD7F4377
:1005EB007E00120C8FE53175F064A4FFE53075F0D9
:1005FB00E8A42FFFE53275F00AA42F2533F9E4FFA9
:10060B00FEEF25E02415F8E6FC08E6FDE9B5050D3F
:10061B00E4B50409858C29858A2A02057F0FBF0062
:10062B00010EEF64094E70D9AF01E52F25E02415BB
:10063B00F8760008A607AF2F7E00120A4F800C0534
:10064B002FE52FC39409500302056E1209F4D3EF63
:0B065B009450EE940040F47E007F01FC
:010666002271
:100A4F00EE7042EFB40900503C900A5FF82828730B
:100A5F00020A7A020A7D020A80020A83020A8602C9
:100A6F000A89020A8C020A8F020A92C28022C2816C
:100A7F0022C28222C28322C28422C28522C286223D
:060A8F00C2B022C2B12238
:100A9500EE7042EFB40900503C900AA5F82828737F
:100AA500020AC0020AC3020AC6020AC9020ACC0225
:100AB5000ACF020AD2020AD5020AD8D28022D281EE
:100AC50022D28222D28322D28422D28522D28622A7
:060AD500D2B022D2B122D2
:100BAD00706C6561736520696E707574206B657905
:100BBD000000000000000000000000000000000028
:010BCD000027
:1002EB00E4F52FF530F531F53278337C00FD7BFFEB
:1002FB007A0B79BEFE7F081200EE783B7C007D0006
:10030B007BFF7A0B79C67E007F081200EE7F01120D
:10031B000C267BFF7A0B79ADE4FFFE120B20120447
:10032B004A8E3B8F3C740A2FF8E6FD7F407E00120D
:10033B000C8F12044A8E3D8F3E740A2FF8E6FD7F18
:10034B00417E00120C8F12044A8E3F8F40740A2F8D
:10035B00F8E6FD7F427E00120C8F12044A8E418F0D
:10036B0042740A2FF8E6FD7F437E00120C8FE4F5F2
:10037B0031F532E53225E02415F8E6FA08E6FB7C88
:10038B00037DE8FFAE021201538E338F347C037D65
:10039B00E8AF03AE021201537E007F64CFCDCFCE08
:1003AB00CCCE1201538E358F36E53225E02415F86D
:1003BB00E6FA08E6FB7C007D64FFAE021201537E79
:1003CB00007F0ACFCDCFCECCCE1201538E378F38D4
:1003DB007C007D0AAF03AE021201538C398D3AE5D6
:1003EB0034653C7004E533653B7035E536B53E301E
:1003FB00E535B53D2BE538B54026E537B53F21E56D
:10040B003AB5421CE539B54117AF32AE31120A95F8
:10041B00E53225E02415F8E4F608F6F527F5282251
:10042B000532E53270020531C3940CE531648094DA
:0E043B0080500302037E0528E5287002052785
:010449002290
:100ADB00202020202020202020202020202020200B
:100AEB002000706C6561736520696E707574206E83
:100AFB00756D002020202020202020202020202069
:100B0B0020200072657365745F61646D696E6B653F
:050B1B00793A202000E2
:100811007BFF7A0A79DB7F407E00120B20E4F52F03
:10082100F53012044A8E318F32E532640C45317055
:1008310003FEFF22D3E5329409E5316480948050B0
:10084100CFE53025E02433F8A63108A632E530247F
:1008510040FFE4352FFE740A2532F8E6FD120C8FB5
:100861000530E5307002052FC39404E52F648094B0
:100871008040AFAE35AF367C007D64120141AA06DF
:10088100AB07AE33AF347C037DE8120141EF2BFBA4
:10089100EE3AFAAE37AF387C007D0A120141EF2BF8
:1008A100FFEE3AFEE5342FFFE5333EFEEFB50909D1
:0C08B100EEB508057E007F0122E4FEFF8A
:0108BD002218
:10075400E4F52FF5307BFF7A0A79EDFFFE120B20CA
:10076400E4F533F53412044A8E318F32D3E53294F2
:1007740009E5316480948050D7E532640C453170CA
:100784000302080CE5342440FFE43533FE740A25E3
:1007940032F8E6FD120C8FE53445337012AE31AFFA
:1007A40032FC7D0A120141EF2530F530EE8008E578
:1007B400322530F530E531352FF52FD3E530940C63
:1007C400E52F6480948040187BFF7A0A79FE7F408D
:1007D4007E00120B20E4F52FF53074FFF533F53469
:1007E4000534E53470020533C39402E53364809420
:1007F400805003020769AF30AE2F120A95E5302509
:0D080400E02415F8E4F608F67F01020C264A
:1008BE007BFF7A0B790EE4FFFE120B207BFF7A0A88
:1008CE0079DB7F407E00120B20E4F52FF530120409
:1008DE004A8E318F32D3E5329409E53164809480AB
:1008EE00400280D8E532640C4531606DE53025E07C
:1008FE002433F8A63108A632E5302440FFE4352F24
:10090E00FE740A2532F8E6FD120C8F0530E53070C4
:10091E0002052FC39404E52F6480948040B0AE3559
:10092E00AF367C007D64120141AA06AB07AE33AF31
:10093E00347C037DE8120141EF2BFBEE3AFAAE3721
:10094E00AF387C007D0A120141EF2BFFEE3AFEE537
:09095E00342FF509E5333EF508DC
:01096700226D
:100C0900C2B2D2AFD2ABD2A9758910E4F58DF58BFA
:0D0C1900F54BF54CC28E7FE87E03020BCE3A
:1009F400120C09D2B2000000000000000000000048
:100A0400C2B230B3FDD28E20B3FDC28EAF8DEFFEE5
:100A1400AD8B7C00E42DFFEC3EFEE48F4A8E49F55D
:100A240048F5477F547E01FDAB4AAA49A948A84727
:100A34001201A8E47B02FAF9F8120233E47BE87AA3
:0B0A440003F9F81202338E4B8F4C2296
:100C54001209F4C3EF943CEE6480948050057E0046
:060C64007F0122E4FEFF07
:010C6A002267
:03001B0002000AD6
:01000A0032C3
:10097400020667E493A3F8E493A34003F68001F22C
:1009840008DFF48029E493A3F85407240CC8C33384
:10099400C4540F4420C8834004F456800146F6DF53
:1009A400E4800B0102040810204080900B87E47E51
:1009B400019360BCA3FF543F30E509541FFEE49348
:1009C400A360010ECF54C025E060A840B8E493A30F
:1009D400FAE493A3F8E493A3C8C582C8CAC583CA3A
:1009E400F0A3C8C582C8CAC583CADFE9DEE780BEF2
:010BAC000048
:10001E00E709F608DFFA8046E709F208DFFA803EC4
:10002E0088828C83E709F0A3DFFA8032E309F608B1
:10003E00DFFA8078E309F208DFFA807088828C8319
:10004E00E309F0A3DFFA806489828A83E0A3F608CD
:10005E00DFFA805889828A83E0A3F208DFFA804CA7
:10006E0080D280FA80C680D4806980F2803380107E
:10007E0080A680EA809A80A880DA80E280CA8033E7
:10008E0089828A83ECFAE493A3C8C582C8CCC5835F
:10009E00CCF0A3C8C582C8CCC583CCDFE9DEE7802F
:1000AE000D89828A83E493A3F608DFF9ECFAA9F0AE
:1000BE00EDFB2289828A83ECFAE0A3C8C582C8CC04
:1000CE00C583CCF0A3C8C582C8CCC583CCDFEADE1D
:1000DE00E880DB89828A83E493A3F208DFF980CC7F
:1000EE0088F0EF60010E4E60C388F0ED2402B40478
:1000FE000050B9F582EB2402B4040050AF2323451F
:06010E00822390006E73D5
:10011400BB010CE58229F582E5833AF583E02250A0
:1001240006E92582F8E622BBFE06E92582F8E222EA
:0D013400E58229F582E5833AF583E4932204
:10014100EF8DF0A4A8F0CF8CF0A428CE8DF0A42ED2
:02015100FE228C
:10015300BC000BBE0029EF8DF084FFADF022E4CC90
:10016300F875F008EF2FFFEE33FEEC33FCEE9DEC59
:10017300984005FCEE9DFE0FD5F0E9E4CEFD22ED9F
:10018300F8F5F0EE8420D21CFEADF075F008EF2FE9
:10019300FFED33FD4007985006D5F0F222C398FDDA
:0501A3000FD5F0EA2277
:1001A800E88FF0A4CC8BF0A42CFCE98EF0A42CFCF6
:1001B8008AF0EDA42CFCEA8EF0A4CDA8F08BF0A474
:1001C8002DCC3825F0FDE98FF0A42CCD35F0FCEBD3
:1001D8008EF0A4FEA9F0EB8FF0A4CFC5F02ECD3998
:0F01E800FEE43CFCEAA42DCE35F0FDE43CFC2205
:1001F70075F008758200EF2FFFEE33FECD33CDCCBF
:1002070033CCC58233C5829BED9AEC99E582984041
:100217000CF582EE9BFEED9AFDEC99FC0FD5F0D61E
:10022700E4CEFBE4CDFAE4CCF9A88222B800C1B948
:100237000059BA002DEC8BF084CFCECDFCE5F0CB86
:10024700F97818EF2FFFEE33FEED33FDEC33FCEBBF
:1002570033FB10D703994004EB99FB0FD8E5E4F97A
:10026700FA227818EF2FFFEE33FEED33FDEC33FC67
:10027700C933C910D7059BE99A4007EC9BFCE99A5B
:10028700F90FD8E0E4C9FAE4CCFB2275F010EF2FA0
:10029700FFEE33FEED33FDCC33CCC833C810D707A0
:1002A7009BEC9AE899400AED9BFDEC9AFCE899F8DB
:0E02B7000FD5F0DAE4CDFBE4CCFAE4C8F9226E
:1002C500D083D082F8E4937012740193700DA3A3C8
:1002D50093F8740193F5828883E4737402936860DC
:0602E500EFA3A3A380DFDC
:00000001FF
