:0300000002063DB8
:0C063D00787FE4F6D8FD75814C0206843D
:1007AD0073617665202020202020202074616B65E8
:1007BD0000202020206C6F636B206F6E2120202085
:1007CD00200061646D696E3A2020202020202020B9
:0307DD00202000D9
:1007E0000B083031323334353637383900181300BE
:1007F00000000000000000000000000000000000F9
:0708000000000000000000F1
:1005A800E4F531F532758901758C3C758AB0D2AFA6
:1005B800D2A9D28C12084B75A0FFE4F52BF52C7F3D
:1005C800011208687BFF7A0779AD7F407E00120729
:1005D8007912031D8E2F8F30E530640A452F70097C
:1005E800858C2D858A2E12042AE530640B452F70E0
:1005F800031201BED3E52C9404E52B64809480405B
:10060800BE7F011208687BFF7A0779BEE4FFFE12FD
:10061800077912031DEF640D4E70F77BFF7A077997
:10062800CFFFFE12077912050DEF64014E70D2F567
:050638002BF52C80856C
:03000B000208C325
:0708C300758C3C758AB03210
:10086800C2B48F807F057E0012082DD2B77F057E27
:070878000012082DC2B72297
:10087F00D2B48F807F057E0012082DD2B77F057E00
:07088F000012082DC2B72280
:10084B00C2B6C2B77F381208687F0E1208687F06DF
:0D085B001208687F011208687F800208689B
:060779008B478A48894904
:10077F00EF2480FF120868E4F54AAB47AA48A9495D
:10078F00854A82758300120104FF12087F7F147E51
:0D079F000012082D054AE54AC3941040DD04
:0107AC00222A
:0E08B5008D47EF2480FF120868AF4702087FCE
:10082D00D3EF9400EE940040147D6E7C00ED1D70AE
:0D083D00011CED4C70F7EF1F70E61E80E30C
:01084A00228B
:0E08A600E4FFFE0FBF00010EEF64C84E70F5B8
:0108B4002221
:0F0896007590F0AF90EF64F060037F01227F0058
:0108A5002230
:10031D00E4F547F548F549754A01E54A4549700345
:10032D00020425120896BF01F11208A6120896BF05
:10033D0001037590F0AF9075900FAE90EE4207EF00
:10034D0012019803EF7703CB7B03A77D03847E0314
:10035D00F8B703D4BB03B0BD038CBE0401D703DDD6
:10036D00DB03B9DD0395DE040AE703E6EB03C2ED1B
:10037D00039EEE00000415E4F547F54802041175DF
:10038D004700754801E4807C754700754802E4809C
:10039D0073754700754803E4806A75470075480416
:1003AD00E48061754700754805E480587547007510
:1003BD004806E4804F754700754807E48046754749
:1003CD0000754808E4803D754700754809E48034A0
:1003DD0075470075480AE4802B75470075480BE496
:1003ED00802275470075480CE480197547007548E3
:1003FD000DE4801075470075480EE48007754700C1
:10040D0075480FE4F549F54A120896EF640160034B
:0C041D0002032712089680F0AE47AF489B
:0104290022B0
:0508CA006B65793A00A6
:10042A00E4F533E53325E02413F8E6FE08E64E60EA
:10043A00030204F4E52D75F00A8485F034E52D7580
:10044A00F0098485F035E52E75F00A8485F036E5E5
:10045A002E75F0098485F0377F011208687BFF7AD0
:10046A000879CAE4FFFE120779AF3474082FF8E658
:10047A00FD7F407E001208B5AF3574082FF8E6FDFF
:10048A007F417E001208B5AF3674082FF8E6FD7F6B
:10049A00427E001208B5AF3774082FF8E6FD7F4395
:1004AA007E001208B5AF347E007C037DE81201316C
:1004BA00AC06AD07E53575F064A42DFDEC35F0FC0E
:1004CA00E53675F00AA42DFFE5F03CFE7C00EF2529
:1004DA0037FFEC3EFEE53325E02413F8A60608A60E
:1004EA0007AF337E001206C9800C0533E533C39487
:1004FA000C500302042D12031DEF640C4E70F7FE1C
:02050A007F016F
:01050C0022CC
:1006C900EE7054EFB40C00504E9006D9F8282873F8
:1006D9000206FD02070002070302070602070902D4
:1006E900070C02070F020712020715020718020773
:1006F9001B02071EC2A022C2A122C2A222C2A32299
:10070900C2A422C2A522C2A622C2A722C2B022C264
:08071900B122C2B222C2B322D8
:10072100EE7054EFB40C00504E900731F828287346
:1007310002075502075802075B02075E02076102C2
:10074100076402076702076A02076D020770020762
:1007510073020776D2A022D2A122D2A222D2A32250
:10076100D2A422D2A522D2A622D2A722D2B022D2AC
:08077100B122D2B222D2B32260
:10080C00706C6561736520696E707574206B6579A9
:10081C0000000000000000000000000000000000CC
:01082C0000CB
:1001BE00E4F533F534F535F53678377C00FD7BFF05
:1001CE007A08791DFE7F081200DE783F7C007D00E4
:1001DE007BFF7A0879257E007F081200DE7F0112F0
:1001EE0008687BFF7A08790CE4FFFE120779120388
:1001FE001D8E3F8F4074082FF8E6FD7F407E001263
:10020E0008B512031D8E418F4274082FF8E6FD7F4C
:10021E00417E001208B512031D8E438F4474082FC1
:10022E00F8E6FD7F427E001208B512031D8E458F43
:10023E004674082FF8E6FD7F437E001208B5E4F5FC
:10024E0035F536E53625E02413F8E6FA08E6FB7CAC
:10025E00037DE8FFAE021201438E378F387C037D9B
:10026E00E8AF03AE021201437E007F64CFCDCFCE46
:10027E00CCCE1201438E398F3AE53625E02413F8A1
:10028E00E6FA08E6FB7C007D64FFAE021201437EB7
:10029E00007F0ACFCDCFCECCCE1201438E3B8F3C0A
:1002AE007C007D0AAF03AE021201438C3D8D3EE50C
:1002BE003865407004E537653F7035E53AB5423034
:1002CE00E539B5412BE53CB54426E53BB54321E583
:1002DE003EB5461CE53DB54517AF36AE3512072186
:1002EE00E53625E02413F8E4F608F6F52BF52C2276
:1002FE000536E53670020535C3940CE535648094F9
:0E030E00805003020251052CE52C7002052BD5
:01031C0022BE
:080003000000000000000000F5
:04080700024B22B8C6
:10050D0078377C007D007BFF7A0079037E007F08C1
:10051D001200DEE4F533F53412031D8E358F36E50A
:10052D003425E02437F8A63508A636E5342440FFF7
:10053D00E43533FE74082536F8E6FD1208B50534AA
:10054D00E53470020533C39404E533648094804030
:10055D00C7AE39AF3A7C007D64120131AA06AB07F4
:10056D00AE37AF387C037DE8120131EF2BFBEE3A4D
:10057D00FAAE3BAF3C7C007D0A120131EF2BFFEE52
:10058D003AFEE5382FFFE5373EFEEFB54C09EEB5E7
:0A059D004B057E007F0122E4FEFF03
:0105A7002231
:100649000205A8E493A3F8E493A34003F68001F21A
:1006590008DFF48029E493A3F85407240CC8C333B2
:10066900C4540F4420C8834004F456800146F6DF81
:10067900E4800B01020408102040809007E0E47E2A
:10068900019360BCA3FF543F30E509541FFEE49376
:10069900A360010ECF54C025E060A840B8E493A33D
:1006A900FAE493A3F8E493A3C8C582C8CAC583CA68
:1006B900F0A3C8C582C8CAC583CADFE9DEE780BE20
:01080B0000EC
:10000E00E709F608DFFA8046E709F208DFFA803ED4
:10001E0088828C83E709F0A3DFFA8032E309F608C1
:10002E00DFFA8078E309F208DFFA807088828C8329
:10003E00E309F0A3DFFA806489828A83E0A3F608DD
:10004E00DFFA805889828A83E0A3F208DFFA804CB7
:10005E0080D280FA80C680D4806980F2803380108E
:10006E0080A680EA809A80A880DA80E280CA8033F7
:10007E0089828A83ECFAE493A3C8C582C8CCC5836F
:10008E00CCF0A3C8C582C8CCC583CCDFE9DEE7803F
:10009E000D89828A83E493A3F608DFF9ECFAA9F0BE
:1000AE00EDFB2289828A83ECFAE0A3C8C582C8CC14
:1000BE00C583CCF0A3C8C582C8CCC583CCDFEADE2D
:1000CE00E880DB89828A83E493A3F208DFF980CC8F
:1000DE0088F0EF60010E4E60C388F0ED2402B40488
:1000EE000050B9F582EB2402B4040050AF2323452F
:0600FE00822390005E73F6
:10010400BB010CE58229F582E5833AF583E02250B0
:1001140006E92582F8E622BBFE06E92582F8E222FA
:0D012400E58229F582E5833AF583E4932214
:10013100EF8DF0A4A8F0CF8CF0A428CE8DF0A42EE2
:02014100FE229C
:10014300BC000BBE0029EF8DF084FFADF022E4CCA0
:10015300F875F008EF2FFFEE33FEEC33FCEE9DEC69
:10016300984005FCEE9DFE0FD5F0E9E4CEFD22EDAF
:10017300F8F5F0EE8420D21CFEADF075F008EF2FF9
:10018300FFED33FD4007985006D5F0F222C398FDEA
:050193000FD5F0EA2287
:10019800D083D082F8E4937012740193700DA3A3F6
:1001A80093F8740193F5828883E47374029368600A
:0601B800EFA3A3A380DF0A
:00000001FF
